:020000022000DC
:1060000000000120BDED0200E5ED02001D8C020044
:10601000E9ED0200EBED0200EDED020000000000F2
:10602000000000000000000000000000EFED020092
:10603000F1ED020000000000F3ED0200F5ED0200BA
:1060400075AA0200F7ED02006DB20200CDBD02009C
:1060500089B50200F7ED020095AF0200DDB3020042
:106060009DBD0200ADBD0200F7ED0200F7ED02009C
:10607000F7ED0200F7ED0200F7ED0200F7ED020088
:10608000F7ED0200BD860200F7ED0200F7ED020019
:1060900059870200F7ED0200B9E00200F7ED0200B7
:1060A000F7ED0200F7ED0200F7ED0200F7ED020058
:1060B00095B30200F7ED02000000000000000000B0
:1060C000F7ED0200A5B30200B5B30200F7ED020040
:1060D000F7ED0200F7ED0200F7ED0200000000000E
:1060E00000000000000000000000000000000000B0
:1060F00000000000000000000000000000000000A0
:10610000000000000000000000000000000000008F
:10611000000000000000000000000000000000007F
:10612000000000000000000000000000000000006F
:10613000000000000000000000000000000000005F
:10614000000000000000000000000000000000004F
:10615000000000000000000000000000000000003F
:10616000000000000000000000000000000000002F
:10617000000000000000000000000000000000001F
:10618000000000000000000000000000000000000F
:1061900000000000000000000000000000000000FF
:1061A00000000000000000000000000000000000EF
:1061B00000000000000000000000000000000000DF
:1061C00000000000000000000000000000000000CF
:1061D00000000000000000000000000000000000BF
:1061E00000000000000000000000000000000000AF
:1061F000000000000000000000000000000000009F
:1062000010B5054C237833B9044B13B10448AFF3F0
:1062100000800123237010BDCCA2002000000000EC
:1062200008BA030008B5034B1BB103490348AFF399
:10623000008008BD00000000D0A2002008BA0300C2
:10624000154B002B08BF134B9D46A3F5803A002148
:106250008B460F461348144A121A08F0F9FE0F4BEA
:10626000002B00D098470E4B002B00D09847002001
:10627000002104000D000D48002802D00C480DF04C
:1062800045FC08F0D1FD2000290000F0FDF808F0E1
:10629000BBFD00BF0000080000000120000000005E
:1062A00000000000CCA20020E0B600200D3B03005F
:1062B000DD4C03000000000008B59FED131B2DED21
:1062C000028B9FED130B08EE100A08EE901A11F0E6
:1062D000AFFA51EC100B13F059F8B8EEC88A07EE7C
:1062E000900A38EE278AB7EE000A38EE408AF8EEB8
:1062F000E88A9FED090A38EE688A28EE000ABDECAC
:10630000028B08BDAFF300800000000000003040A9
:106310000000000000000040181E203A38B5054D6E
:10632000044645F001054FF47A40A847013CFAD1F4
:1063300038BD00BFF097030038B50C4B1C681F2C0C
:10634000054604D90A494FF4F37008F039F94FF0C3
:10635000A0430120D3F81035E34003F0010307EE1A
:10636000903AF8EEE77AC5ED007A38BDEC98002057
:10637000F697030010B50E4C0E48012100F07CFD8D
:10638000204608F03DFD51EC100B12F0FFFF0A4BC8
:10639000186012F0ABFC02460B46084808F0A2FE5B
:1063A00020460C220021BDE8104008F051BE00BF7D
:1063B000E8A20020CE97030058A30020D89703003E
:1063C00008B50121034800F057FD0348BDE8084027
:1063D00008F088BEAD970300BC97030038B50546AA
:1063E00001210948094C00F047FD297A2046490857
:1063F00008F078FE05F10901204608F073FE044814
:10640000BDE8384008F06EBE909703009F9A0300E5
:106410009E970300082822D8DFE800F0050C090F3A
:106420001512181B1E000E48002100F025BD00218A
:106430000C48FAE700210C48F7E700210B48F4E785
:1064400000210B48F1E700210A48EEE700210A4845
:10645000EBE700210948E8E700210948E5E7704734
:106460007D990300819903008999030091990300A4
:10647000A1990300AF990300BD990300C2990300DD
:10648000C7990300000000002DE9F04FC44C2DED2A
:10649000068B94E80F00B3B00AAD103485E80F0006
:1064A00094E80F000DF1380C8CE80F0000231A4619
:1064B0006146284602F0F8FD20B1BA4A40F20F11B9
:1064C00001F071FD284600F05FFC0021B648B74D91
:1064D00000F0D2FCB64808F005FEB64808F002FE0F
:1064E0000FCD1AAC0FC42B68B348236008F0FAFD37
:1064F0000123B2488DF870308DF8713008F0F2FD4C
:1065000000221AA9AE4801F0ADFE0446AD4808F0DD
:10651000E9FD24B1A34A7521204601F044FDAA48B3
:1065200008F0E0FDA64802F03FF8A84808F0DAFDC0
:10653000A74B0FCB12AC84E80F0013221423A548FD
:10654000CDE9122308F0CEFD2146A34804F064F9FA
:106550000446A24808F0C6FD2CB1924A40F21F1131
:10656000204601F020FD9E489E4C08F0BBFD9A4855
:1065700001F0DCFA9C4808F0B5FD9C4808F0B2FD3B
:1065800000219B4800F078FC9A4808F083F99A4B68
:106590001860204608F0C6F9984BCDE90243984BA5
:1065A00001930C230121009300231A46084608F0AA
:1065B000DDF908F061FA0021924800F05DFC4FF42B
:1065C0007A70FFF7ABFE00F015FF8F4808F08AFDE8
:1065D00000F05CFB8D4808F085FD8D4B1C681F2C7E
:1065E00004D98C494FF4F37007F0EAFF04F5E07327
:1065F0004FF0A042002442F823408748DFF83C9245
:1066000008F070FD4FF00008844800F03FFF20467E
:10661000FFF700FF082CF7D8DFE814F009008F001F
:106620002700AC01F501AC012002F80279007C4D95
:10663000286812F05BFB41EC100B11F09DF8002272
:1066400051EC100B002312F039FE014650B101F05D
:106650005DFB01F03DFB7348D5ED008A08F042FD7B
:106660000224D1E700F06CFFCEE701F055FB11EEFC
:10667000100A12F03BFB41EC100B41EC190B11F02E
:106680007BF8664D684A8DED000B102116A808F0C6
:1066900005FE012116A800F0EFFB284600F0D4FE0D
:1066A000824658B10021084600F04AFF6420FFF7F7
:1066B00035FE284600F0EAFE0024A5E7B0EE490AC0
:1066C000F0EE690A11F058F818EE900AB0EE40AA00
:1066D000F0EE60AA12F00AFB41EC100B11F04CF83E
:1066E00051EC1A0B53EC102B12F0DEFD88B14F4821
:1066F00008F0F8FC01F00AFB5146504600F020FF7C
:106700006420FFF70BFE284600F0C0FEAE8A01248D
:106710007AE7F5EEC08AF1EE10FAC0F26F826FF000
:106720002701282000F00CFFB0EE490AF0EE690ABC
:1067300011F022F88DED000B12E1DFF8E0A0BAF8BD
:106740001400B0427CD3831B08EE103ADFED387A98
:10675000B8EEC88A28EE278A602230491AA808F0C5
:10676000DDFB9AF8023005939AF803B09AF80450CA
:1067700000F0CEFAF1EE047AB4EEE70AF1EE10FA88
:10678000059B63D52B4B01221A702B4808F0AAFCFD
:106790000021084600F0D4FE0324BAF8147033E751
:1067A00044970300449803004B9803006497030048
:1067B000599803006F980300869803008998030096
:1067C000889703008C9803008F9803009298030029
:1067D0007897030095980300D499030098980300D4
:1067E0009B980300B49800209E980300A198030092
:1067F000B3980300DC980020D4B50020A8980020AE
:10680000E8A20020BD980300CC980300E1980300A3
:10681000EC980020F6970300F5980300F8A20020FA
:1068200058A30020089903001A9903001D9903003A
:10683000181E203AF4A200202B99030000002E40DD
:106840003146FFF739FDB0EE408A85E713B1C64BFC
:1068500001221A70BBF1000F02D0C44B01221A7042
:10686000BDF86A30002B90D1002D8ED1C04800F0C9
:10687000EBFDD0B1BF4808F035FC2946284600F0B2
:106880005FFE18EE100A12F031FABB4ACDE90001A2
:10689000102116A808F002FD012116A800F0ECFA5C
:1068A0006420FFF73BFDB24804E7F0EE007AB4EE57
:1068B000E78AF1EE10FA09DBB04808F013FC29462C
:1068C000284600F03DFE0121AD48E7E7DFF8C4A20D
:1068D000DAF8000012F00AFA41EC100B10F04CFF4D
:1068E00042464B4651EC100B12F0E8FC58B3DAF874
:1068F000000012F0FBF902460B46A24808F0F2FB3A
:10690000002329462846DAED008ACAF8003000F054
:1069100017FE01F0FBF96420FFF700FD944800F03A
:10692000B5FD01F0D5F918EE900A12F0DFF9924AA0
:10693000CDE90001102116A808F0B0FC294616A8E0
:1069400000F09AFA8CE6294600F0FAFD29468E48B6
:1069500000F092FA18EE100A12F0C8F9CDE9000121
:10696000854A102116A808F099FC012116A800F00C
:1069700083FA49E67E4B998AB94212D87B1A08EE0F
:10698000103A9FED820AB8EEC88A28EE008A78484D
:1069900000F05AFD824650B10021084600F0D0FDBB
:1069A0007EE73846FFF788FCB0EE408AEFE718EE46
:1069B000100A12F09BF96AA3D3E9002304460D469E
:1069C00012F072FC68B15146504600F0B9FD01F07A
:1069D0007FF96420FFF7A2FC654800F057FD04240E
:1069E00012E66FF04001084600F0AAFDCDE900452F
:1069F000614A102116A808F051FC012116A800F0E8
:106A00003BFA052400E601F087F911EE100A12F0B6
:106A10006DF941EC100B41EC190B10F0ADFEDFF8F5
:106A200050A1554A8DED000B102116A808F036FC38
:106A3000012116A800F020FA504600F005FD054699
:106A4000002800F0AD800021084600F079FD6420A8
:106A5000FFF764FC504600F019FD00244C4D2B78E4
:106A6000002B42D04B4BD3ED007AF5EEC07AF1EE1D
:106A700010FA00F3C780F5EE407AF1EE10FA34D147
:106A8000454C09220121204601F0E2FB1128F8D0F3
:106A90004FF41660FFF742FC3F4C032200212046D2
:106AA00001F0D6FB1128F8D006A8FFF745FC3B48BB
:106AB000394C08F017FB069812F018F902460B46FD
:106AC0002D4808F00FFB4FF41660FFF727FC052256
:106AD0000121204601F0BCFB1128F8D04FF41660CC
:106AE000FFF71CFC00232B7006242B78002B7FF46F
:106AF0008BAD294C09220121204601F0A9FB112868
:106B0000F8D04FF41660FFF709FC234C0322002154
:106B1000204601F09DFB1128F8D006A8FFF70CFCD9
:106B20001E481D4C08F0DEFA069812F0DFF8024607
:106B30000B46114808F0D6FA4FF41660FFF7EEFB4B
:106B400005220121204601F083FB1128F8D04FF4E3
:106B50001660FFF7E3FB01232B70062454E500BF0A
:106B60009A9999999999B93FF5A20020F4A2002029
:106B7000F8A20020309903001A9903003999030004
:106B80003F9903004899030089990300181E203A91
:106B9000F6A2002058A30020889703006399030001
:106BA000B0EE490AF0EE690A10F0E6FD00222C4B27
:106BB000DFF8C4B051EC100B12F076FBA0B101F07D
:106BC000A5F82946284600F0BBFC4FF4FA70FFF701
:106BD000A5FB504600F05AFC224BBAF814608BF823
:106BE00000501D70012439E79BF80030002B7FF422
:106BF00096AD1C4B1B78002B7FF491AD28216FF0D4
:106C000027008FE5F0EE678A02246EE71648174CDE
:106C100008F068FA05220121204601F019FB11282D
:106C2000F8D04FF41660FFF779FB104C03220021D7
:106C3000204601F00DFB1128F8D04FF41660FFF745
:106C40006DFB06A8FFF778FB094808F04BFA069899
:106C500012F04CF802460B46064808F043FA7CE76F
:106C600000804640F4A2002070990300889703003A
:106C7000639903001A990300F5A2002002494FF41A
:106C8000F37007F09DBC00BFF697030038B51C4BAE
:106C90001C681F2C01D9FFF7F1FF4FF0A043012220
:106CA000A240C3F81825174A15681F2D1C4601D9A4
:106CB000FFF7E4FF05F5E075002344F82530124B9B
:106CC000D3F8082542F00302C3F80825D3F81025AD
:106CD00042F00402C3F81025DA6842F00102DA60DB
:106CE0001A6842F001021A60D3F8042342F4803299
:106CF000C3F80423054B4FF000621A6038BD00BF93
:106D0000F4980020F098002000B0014000E100E07D
:106D10000B4B1B68092B0FDD0A4BDFED0B7A03F1E0
:106D20002802B3EC017A934277EE877AF9D1B2EE7A
:106D3000047A87EE870A70479FED040A704700BF08
:106D40009CA30020FCB50020000000000000C84209
:106D50001FB500220091022369460430CDE90132BB
:106D6000039204F051FD05B05DF804FB38B5054D04
:106D70000A2445F001054FF47A40A847013CFAD1B6
:106D800038BD00BFF099030073B502AC0E2324F8A0
:106D9000043D374E21463060FFF7DAFF0546C0B1AB
:106DA000344A182101F0FFF8284602B070BD314A7C
:106DB0002221F7E72F4A2C21F4E72E4A3621F1E76A
:106DC0002C4A4021EEE72B4A4A21EBE7294A54217D
:106DD000E8E7FFF7CBFF022321463068ADF8043027
:106DE000FFF7B6FF05460028E1D1FFF7BFFF4FF4DC
:106DF000804321463068ADF80430FFF7A9FF05460F
:106E00000028D7D1FFF7B2FF48F2010321463068CE
:106E1000ADF80430FFF79CFF05460028CDD1FFF701
:106E2000A5FF4FF4004321463068ADF80430FFF76A
:106E30008FFF05460028C3D1FFF798FF44F20303F4
:106E400021463068ADF80430FFF782FF0546002880
:106E5000B9D1FFF78BFF402321463068ADF80430ED
:106E6000FFF776FF05460028B0D1FFF77FFF9BE7CD
:106E7000A0A30020F69903002DE9F34107460C4634
:106E800008F0BEFA102806463CD85CBB02A92023B5
:106E900021F8043D1F4B1868FFF75AFF0446C8B994
:106EA000DFF870800025B54238BF7B5DD8F8000060
:106EB00028BF20239A0862F07F029B0101A98DF868
:106EC00004208DF80530FFF743FF0446F0B1124A65
:106ED0008E2101E0104A6D2101F065F8204602B0D4
:106EE000BDE8F081012C0FD102A9302321F8043D27
:106EF000084B1868FFF72CFF04460028D0D0064A3C
:106F00007521E9E70924E9E70B24E7E70135102DAE
:106F1000C9D1E3E7A0A30020F69903002DE9F04FC3
:106F20005D4C87B0002389468DF80F30074600F08E
:106F300055FA4FF0FF31206803F0B0FAA0468246C0
:106F400038B10146554808F0CDF8504607B0BDE8C5
:106F5000F08F206803F000FB044628B1014650483A
:106F600008F0C0F8A246F0E7B9F1040F40F28B80B8
:106F70000546002600E05546042EFDD801A353F82F
:106F800026F000BF996F0200796F020009700200BD
:106F900031700200537002004FF0640BCDF800B066
:106FA0000023012204A9D8F8000003F001FA824668
:106FB00060B101463B4808F095F8132D05F1010B2F
:106FC00013D8394808F08EF85D46D5E7CDF800B003
:106FD000034601220DF11101D8F8000003F0E8F991
:106FE000824630B101463148E5E7314808F07AF889
:106FF000ABE79DF81020AA2ABDD19DF81120552A93
:10700000054608BF0226B7E7642300930122002348
:107010000DF10F01D8F8000003F0CAF982460028EC
:1070200093D19DF80F3002334B452CDA0326A3E7AA
:107030009DF80F2064230093013205ABF91CD8F8AA
:10704000000003F0B5F9824600287FF47EAF0426E5
:1070500092E7022204A9384607F060FF9DF80F105E
:10706000B9703846033100F0E1F99DF80F303B4428
:10707000DB7883420AD0032C0BD0013421460D4823
:1070800008F030F875E74FF0040A5EE74FF0000AA9
:107090005BE7DFF824A058E7F89800204F9A030038
:1070A000609A0300749A0300A39A0300219B0300D3
:1070B000B59A03004F9B030024FAFFFF2DE9F84324
:1070C0008778032407F1020806460D46274401F19C
:1070D00054093319A04501DABDE8F883315D5A78C7
:1070E00001391429F6D801A050F821F041710200AD
:1070F000D57002001972020035720200537202004C
:107100007B720200D5700200D5700200D5700200BB
:1071100099720200B5720200D5700200CF720200AF
:10712000D5700200D570020005730200D570020010
:10713000D570020067730200D57002009B730200D5
:107140000F2A40F04981D9789A7842EA0122EA83ED
:10715000221DB15C01F001012971B15CC1F3400154
:10716000E970B25C611DC2F38002AA70725C02F029
:1071700001026A70725CC2F340022A70A21DB15C07
:1071800001F00101E971B15CC1F34001A971B25C88
:10719000C2F380026A71197ADA7942EA01226A82BC
:1071A000997A5A7A42EA0122AA82DA7AAA761A7B74
:1071B000EA7604F10D02B15C01F00101A973B15C42
:1071C000C1F34001E973B25CC2F380022A749A7B76
:1071D000062A1DD012D8C2B1022A15D0DB7B85F851
:1071E000203004F110021134B35C03F001032B775B
:1071F000B35CC3F340036B77E4B26AE7122A09D0A9
:10720000162AEBD1042200E0012285F82120E5E7CF
:107210000222FAE70322F8E7032A40F0DD809A7899
:1072200085F82C20DA7885F82D201B7985F82E300A
:107230000534E1E7072A40F0CF80D9789A7842EA0E
:1072400001226A845A791B7943EA0223AB84093408
:10725000D2E7062A40F0C080D9789A7842EA012223
:10726000AA8159791A7942EA01226A81DA799B79ED
:1072700043EA02232B810834BEE7022A40F0AC80A7
:10728000D9789A7842EA0122EA825A791B7943EA4C
:1072900002232B830434AFE7042A40F09D809A78C0
:1072A00085F82F20DA7885F830201B7985F8313081
:1072B0000634A1E7042A40F08F809A7885F83220BE
:1072C000DA7885F833201B7985F83430F0E706202A
:1072D000B2FBF0F100FB1121C9B202297CD19879EF
:1072E000597941EA0021E984187AD97941EA0021E3
:1072F0002985997A5B7A023443EA01236B8552FA35
:1073000084F479E7102A67D1A21C1234B15C01F031
:10731000010185F84410B15CC1F3400185F84410C7
:10732000B15CC1F3800185F84410B25CC2F3C002C5
:1073300085F8442059791A7942EA0122A5F84820B3
:10734000D9799A7942EA0122A5F84A20597A1A7A1B
:1073500042EA0122A5F84C20DA7A9B7A43EA02231A
:10736000A5F84E3048E70C2A36D1A11C042231443E
:1073700005F1380007F0D2FDA11D0422314405F1CA
:107380003C0007F0CBFD04F10A010422314405F171
:10739000400007F0C3FD0E342EE70D2A1CD19B7868
:1073A0005A1E53425341E11C85F8503004223144A7
:1073B000484607F0B3FDE11D0422314405F15800B1
:1073C00007F0ACFD04F10B010422314405F15C002F
:1073D00007F0A4FD0F340FE73C440DE7024A0349D0
:1073E000034802F099BE00BFE89B0300BC9B03006A
:1073F000049C030010B501F06BFD852804D018B182
:10740000094A352100F0CFFD002001F07DFD01F09B
:10741000F5FA8528044604D018B1034A3B2100F050
:10742000C2FD204610BD00BF609B030010B5821C4A
:107430000023141AA14201DC184610BD12F8014BBA
:107440006340F6E7FFF7F2BF10B5827B0C49AAB1A3
:107450000B7883F001030A70C27B0A491AB10C78D9
:10746000002C08BF13460A70027C07491AB108783D
:10747000002808BF13460A70184610BD1346EAE7F5
:10748000A4A30020A5A30020A6A3002030B5A5B08A
:107490008C220021054601A807F0DAFD8C2101A805
:1074A000FFF73CFD044618B9294601A8FFF706FE80
:1074B000204625B030BD000070B5C2B00D4602AC0C
:1074C0000646FE2200210DF10A0007F0C1FD45F23B
:1074D000AA532A4631460DF10B00EE1C2380A570FD
:1074E00007F01CFD31462046FFF7ACFF0A23A055EC
:1074F000044800932A1D00232146006802F0A8FEDC
:1075000042B070BDF89800201FB540F20143ADF8BD
:107510000600ADF80410022201A90DF10A00ADF831
:10752000083007F0FBFC02220DF1060103A807F06A
:10753000F5FC062102A8FFF7BFFF05B05DF804FBCC
:107540002DE97043054608460E4607F055FC0446F3
:10755000284607F051FC8442D4BF2C463446AE4244
:1075600031D0701911F0B0FB8046701B894611F0C4
:10757000ABFB02460B4611F05BFA15A3D3E90023DF
:1075800011F036FD0B4602464946404611F030FDEB
:1075900011F0B4FE11F098FB41EC100B10F0F6F86E
:1075A00051EC100B11F0AAFE00F50043B3F5803F3B
:1075B00001D2012801D86442012021B200B2BDE805
:1075C0007043FFF7A1BF0020F7E700BFAFF30080D3
:1075D0000000000000C05E4038B5054D044645F08F
:1075E00001054FF47A40A847013CFAD138BD00BFED
:1075F000F09C03007FB505460E46144672B602F0B5
:1076000035F901F081FF0028FBD13E4807F06AFD03
:1076100041F201039D4264D006D8012D12D03146BB
:10762000394807F05FFD10E044F201039D425AD053
:1076300044F202039D42F2D122886168334807F088
:1076400051FD02E0324807F04DFD03F0B5FA08B9EC
:1076500003F07CFA0023ADF80C308DF80E3003A94E
:10766000012319208DF80D3003F0B0FA03A918207A
:1076700003F0ACFA03A9172003F0A8FA192003F0CD
:10768000A9FB182003F0A6FB172003F0A3FB4FF47F
:10769000FA70FFF7A1FF192003F06EFB182003F02A
:1076A0006BFB172003F068FB3220FFF795FF1920D2
:1076B00003F090FB182003F08DFB172003F08AFBEA
:1076C0004FF4FA70FFF788FF192003F055FB1820DC
:1076D00003F052FB172003F04FFBFA20FFF77CFF6B
:1076E000CCE70C48AFE7A568284602F083FF236883
:1076F00001960093024663680748294607F0F2FCAA
:10770000A3E700BF2C9C0300C99C0300849C0300DA
:10771000459C0300629C03009F9C030007B503F097
:107720004BFA08B903F012FA0023ADF804308DF8D3
:10773000063001A9012319208DF8053003F046FA1F
:1077400001A9182003F042FA01A9172003F03EFA1C
:10775000192003F03FFB182003F03CFB172003F037
:1077600039FB4FF4FA70FFF737FF192003F004FBE1
:10777000182003F001FB172003F0FEFA3220FFF778
:107780002BFF192003F026FB182003F023FB172002
:1077900003F020FB4FF4FA70FFF71EFF192003F0EF
:1077A000EBFA182003F0E8FA172003F0E5FAFA20C4
:1077B000FFF712FFCCE770477FB5400003AB8DF8B1
:1077C0000C108DF8150000210B4804930091022342
:1077D0008DF80D208DF8143004AA012340688DF82F
:1077E000161003F085F818B1044A392100F0DBFBCC
:1077F00007B05DF804FB00BF4CA80020089D030003
:1078000000B589B00F238DF80E300DF10E030493EF
:10781000012398408DF81500184300218DF81D00B4
:107820000E4800910DF10F028DF814308DF81630CE
:1078300006928DF81C3004AA022340688DF80F10C0
:107840008DF81E1003F054F818B1054A2F2100F0EE
:10785000AAFB9DF80F0009B05DF804FB4CA80020BE
:10786000089D030000B589B008AB069203F8111D0E
:107870000493012398408DF8150040F00100002189
:107880008DF81D000B488DF814308DF816300091DE
:1078900006238DF81C3004AA022340688DF81E10C0
:1078A00003F026F818B1044A252100F07CFB09B04A
:1078B0005DF804FB4CA80020089D0300084B5B7A90
:1078C000012B07D002D3022B07D07047054B064A85
:1078D0001A607047034B054AFAE7024B044AF7E780
:1078E0004CA800202CA80020295C0F3C295C8F3C70
:1078F000295C8F3D0A4B1B7E032B06D8DFE803F083
:10790000020C0609074B084A1A607047054B074AE4
:10791000FAE7044B064AF7E7024B064AF4E700BFD2
:107920004CA8002020A8002040DA7F3840DAFF3839
:1079300040DA7F39B0E33F3A0A4B93F82130032B0A
:1079400006D8DFE803F00206090C074B074A1A6065
:107950007047054B064AFAE7034B064AF7E7024B26
:10796000054AF4E74CA8002044A80020F7CC1239BF
:10797000240B98399F71E139240B183A014B587840
:10798000FFF73EBF4CA80020014B9878FFF738BFA7
:107990004CA8002010B5284C237A13B1A27A5201CA
:1079A000D3B2E27A617A607802F0030242EAC1025D
:1079B0001A43D2B21021FFF7FFFE00221121607896
:1079C000FFF7FAFE227B637B002A18BF80222BB1CF
:1079D000A37B03F00F0343F040031A4312216078A6
:1079E000FFF7EAFE627D237D002A18BF20220BB13B
:1079F00042F01002E37C13B142F00802D2B2A37D40
:107A000013B142F00202D2B21E216078FFF7D4FE19
:107A1000E27B237C002A18BF20220BB142F0100227
:107A2000637C13B142F00802D2B260781321BDE842
:107A30001040FFF7C1BE00BF4CA8002010B51B4C82
:107A4000227FE37E002A18BF20220BB142F01002F1
:107A5000A37E13B142F00802D2B21F216078FFF773
:107A6000ABFEE27D12B1627E5201D2B2237E60781B
:107A700042EAC30294F91D30D2B2002BA2BF42F0F9
:107A8000040203F003031A432021FFF795FEA27FAF
:107A90002AB1E27F520102F0600242F08002607877
:107AA0002121BDE81040FFF787BE00BF4CA8002091
:107AB00010B51D4C94F8243094F8221094F823202B
:107AC000A0785B018900002A01F01C0103F060032B
:107AD00043EA010318BF80221A432021FFF76CFEFE
:107AE00094F82120A0782121FFF766FE94F8263033
:107AF00094F82720A078002B18BF202302F003025F
:107B00001A432221FFF758FE94F82520A07892000E
:107B100002F00C022321FFF74FFEA078002224215F
:107B2000BDE81040FFF748BE4CA80020324B13B50B
:107B3000586006205881587646F60122FF201A80A8
:107B400058771C224FF48074072001219A705C82C0
:107B50000022588440F2011440F2033019725A7224
:107B60009A81DA811A829976D97619771A769A7774
:107B7000DA7783F8201083F821209884DA8483F858
:107B800028109C821D49DC821D4B0A801A804A8085
:107B90005A808A809A801B4B1A701B4A92E8030015
:107BA0006B4683E80300194A1948194603F00AFF97
:107BB00020B1184A4FF4C67100F0F5F9FFF77EFEC8
:107BC000FFF7BAFEFFF796FEFFF7D8FE0446FFF771
:107BD000DBFE40EA042000B246F63D03984208D19D
:107BE000FFF7D8FEFFF72AFFFFF762FF002002B081
:107BF00010BD4FF0FF30FAE74CA8002026A8002067
:107C000018A8002024A80020F89C0300B7770200E1
:107C1000009D0300089D0300F0B5264B264C5878C4
:107C2000264D274E8BB005AA1821FFF71BFE9DF8A5
:107C300015309DF814009DF816109DF81920247831
:107C400040EA03209DF8173041EA03219DF81830DF
:107C500043EA02231B4A00B209B21BB228803180DA
:107C600013804CB1184C2788C01B28806088091AE3
:107C70003180A1885B1A1380144BD3ED007AB6F9DA
:107C8000003000EE903AB2F9003001EE103AB5F94A
:107C9000003000EE103AF8EEE00AB8EEC11AB8EE85
:107CA000C00A60EEA70A20EE270A21EE271A0BB0C1
:107CB000F0BD00BF4CA8002024A8002030A8002060
:107CC00032A8002034A8002026A800202CA80020DC
:107CD00010B50B4803F08CFF044670B9094B0848F7
:107CE00000229A605A601A6003F09CFF044803F077
:107CF00021FF054B20461C6010BD0820FCE700BF9B
:107D0000009D030038A8002048A80020014803F087
:107D10002DBF00BF009D030000B52DED028B00219B
:107D20008BB02D4803F094FF2C4A9FED2D7A1368F9
:107D30001060C31A07EE903AF8EE677A87EE878AEA
:107D4000FFF76AFF274BF6EE007AB4EEE71AF1EE82
:107D500010FA06DCBEEE007AB4EEC71AF1EE10FAA5
:107D600005D593ED027AA8EE017A83ED027AB4EE9E
:107D7000E70AF1EE10FA06DCBEEE007AB4EEC70AAE
:107D8000F1EE10FA05D593ED007AA8EE007A83EDB6
:107D9000007AF4EEE70AF1EE10FA06DCFEEE007A65
:107DA000F4EEE70AF1EE10FA05D5D3ED017AE8EE2C
:107DB000207AC3ED017A93E807000AAB03E90700D4
:107DC0009DED070ADDED080A9DED091A0BB0BDEC2B
:107DD000028B5DF804FB00BF009D030048A8002053
:107DE0000024744938A800200369C1688B429DBFF4
:107DF0008268D21802F1FF3203F1FF3394BF501AA8
:107E0000581A70472DE9F041D0E902670446F61B85
:107E10004068964288461546384405D907F07EF8F2
:107E20003D44E560BDE8F0813246AD1B07F076F8D1
:107E30002A4608EB0601606807F070F8F1E72DE9C3
:107E4000F843C5680646894617464FF0000834696E
:107E5000B3687068A54228BFE418013C621B5C1B34
:107E6000BC4228BF3C46944228BF14464946284499
:107E7000224607F053F8B3682544AB4208BF0025FB
:107E80003F1BA044A144F560E1D14046BDE8F88322
:107E900010B5114C114AA2610223C4E90433104BFE
:107EA000E361A2644FF400730E4A2362E26400238C
:107EB00010220D49A362E01D6362E362A36563655E
:107EC000E365226507F032FA0849204607F02EFAEA
:107ED0002023A37110BD00BF24B600205D9D0300C8
:107EE00088A8002078A80020669D03006A9D0300F2
:107EF000F8B5184C182300FB033503FB004025445C
:107F0000C46A012C0F46164611D003D3022C1BD095
:107F100000240AE02846FFF767FF864205D832466C
:107F200039462846FFF76EFF34462046F8BD2846FE
:107F3000FFF75AFF8642344628BF04462246394698
:107F40002846FFF75FFFF0E72846BDE8F840FFF757
:107F500076BF00BF24B6002073B50D4B1B780446D6
:107F60000D4616460BB9FFF793FF02A8002300F851
:107F7000013D00F0FBFD324629462046FFF7B8FFE1
:107F800004469DF8070000F021FE204602B070BDB7
:107F900024B6002010B511461C461A460020FFF7F3
:107FA000DBFF204610BD00B583B002900091019226
:107FB00044F2010071466A46FFF71CFB03B000BDA6
:107FC0002DE9F8430468054694F8200003F0DCF836
:107FD00004F11807FF264FF0FF394FF00008207A10
:107FE000FF2802D003F0D0F82672607AFF2802D072
:107FF00003F0CAF866722068431C03D002F074FED6
:10800000C4F8009084F80B800C34BC42E7D1686857
:10801000BDE8F84303F0C4BD2DE9F041134DDFF88E
:1080200050800E460024012705EB41052B5D5BB116
:108030002B5D013BDBB22B552B5D93B958F82630F5
:108040001B683046DB6998474CB167B1084B53F861
:10805000263002215868BDE8F04103F07DBE0124BE
:10806000E4E70027F0E7BDE8F08100BF9CB6002000
:1080700088AA002040680C4902798B5CDBB2FF2B98
:108080000DD0FE2B0DD0006803F5A87350F82330F7
:10809000064850F82200984203D1FF238B54002059
:1080A00070470120704700BF9CAA0020A4AA0020AE
:1080B0002DE9F84F012904460D469046066804D97B
:1080C0005E4940F25B2006F07BFA0C2303FB05635C
:1080D000DB7A012B04D059494FF4177006F070FA7F
:1080E00096F82130022B40F0A4800C276F43F3193F
:1080F0005B68984508D1F36913B90020BDE8F88F93
:10810000626810799847F8E72046FFF7B3FF834687
:10811000002840F090806368DFF830A11B79FE22D0
:108120000AF80320266896F8200003F087F8D14665
:10813000B8F1000F1FD13744787A03F07FF8387A0E
:1081400003F064F863681B79FF220AF803200C230C
:1081500003FB0566C6F804802368DB69002BCCD0DE
:1081600063681A79364B03EB420302215955606864
:1081700003F0C6FDC1E7B169884507D337441FFA4C
:1081800081F8387A03F05AF8787AD9E705EB450791
:10819000BF00F31960685A68914245D0002A43D065
:1081A000904541D25B46032103F078FDD4F804A04A
:1081B00096F820B09AF80530032B04D8214940F2F4
:1081C000751006F0FDF9DAF80030F05903F5A67ADB
:1081D0000C2303FB05639B7A1BB302F07FFE024670
:1081E0005146584602F0F2FF96F8200003F00EF8D0
:1081F00063681B7909F8035063681A79124B43F8D6
:1082000022800C2707FB0567002342462946606849
:1082100003F044FD387A02F0F9FF787A02F0F6FFB5
:1082200095E702F037FEDAE70379FF2209F8032029
:10823000E7E7082062E7112060E700BF719D0300B7
:108240009CB60020BB9D0300A4AA00209CAA00208D
:1082500003681B8B5A436423B2FBF3F292B2FFF71D
:1082600027BF00002DE9F04F89B08A4605920446E9
:1082700020B9C34940F2113006F0A2F9BAF1000F5B
:1082800000F07981266896F82130002B40F0758146
:1082900000F0E2FE08B1852821D102F08DFC00B388
:1082A000B84B1B6803F0F003302B20D10023B64AF3
:1082B00000211370FF234FF0FF3286F82030F17257
:1082C000337273723260F17532757375F26006F154
:1082D000200002F025FF60B12046FFF771FE042563
:1082E00018E002F033FC0028DAD0032512E0012365
:1082F000DDE705465AF825B0EBB2BBF1FF3F04932A
:1083000000F0AE80276897F8211049B10825204673
:10831000FFF756FE284609B0BDE8F08F0125E9E7D2
:108320000AEB05024FF00C0808FB05F8137A0293DC
:1083300007EB08024FF001095160937203228DF898
:1083400018202268424406A9927A8DF81A90B2FA4F
:1083500082F2520958468DF8192002F037FCE8B92C
:10836000029B47F808B0002B00F0EB80BBF11F0F19
:1083700004D986494FF4F37006F022F94FF0A04279
:1083800009FA0BF3C2F80C354FF00C0909FB05F99B
:1083900009F10800384402F0C3FE08B10425B6E72D
:1083A00009F10900384402F0BBFE0028F6D1B944B7
:1083B00099F8080002F042FF99F8090002F03EFF28
:1083C000029B57F80800002B00F0CA8002F086FDDF
:1083D000814657F8080002F05DFD0C2303FB05738E
:1083E000049993F808B063685A798A42804606D89F
:1083F0006749029340F2751006F0E2F8029B1B6891
:1084000005F150014A4603EB8101584602F0DEFEB9
:108410000C2303FB0573D4F804B093F809909BF880
:108420000530022B04D85A4940F2751006F0C8F8FE
:10843000DBF80010424601F5A471484602F0C6FE82
:108440000C2303FB05770123FB726368514A1B79F8
:10845000049902EB4303204600225A55FFF728FEF9
:10846000002D3FF45BAFDAF810200023B2F5805FF7
:1084700001D3092B7CD1444A127812B1002B08BFDA
:1084800001238DF8183000238DF819308DF81A303B
:108490006068414A07238DF81B300379079306A9CA
:1084A00003F090FA054600287FF431AF6368DAF8EC
:1084B00010001B68D3F81015C9B2050FC1F1200CCC
:1084C0000001A1F1200720FA01F805FA0CFC48EAA6
:1084D0000C0825FA07F725FA01F948EA0708B9F167
:1084E000010F08BFB8F1000F08D32C4940F2B120AA
:1084F000CDE9028906F064F8DDE90289C6F8188042
:108500006068CDE9028903F08DFBDDE90289012570
:108510000095042342460221606803F0DAFB022141
:10852000606803F019FC059BF36163681C4A1B79C2
:1085300086F8215042F823401A4AFF21D1540025E1
:10854000E8E6BBF11F0F04D910494FF4F37006F0B1
:1085500037F84FF0A04209FA0BF3C2F8083513E7D9
:1085600002F098FC814657F8080002F0B7FC34E7A7
:10857000520801337AE70B25CCE60825CAE600BF8E
:10858000719D0300E80F00F0B8AA0020F6970300E1
:10859000BB9D03009CB60020198002000C9E0300C6
:1085A00088AA00209CAA00202DE9F047076897F8C8
:1085B0002130044623B91B4940F2973006F000F8F9
:1085C0000026DFF868903D46B0464FF00C0A63681D
:1085D0001B7909EB430303F80680EB7A73B1236838
:1085E00028680AFB0633997AB1FA81F1490902F049
:1085F00099FC286802F01CFCC5F804800C357EB19B
:108600006368094A1B79FF21D154606803F00AFBB3
:10861000606803F08FFA022387F82130BDE8F08705
:108620000126D4E7719D03009CAA00209CB600207F
:10863000094A537891780133DBB2994208BF00238D
:10864000117899421FBF03705078182303FB002054
:1086500014BF043000207047BCAA002073B5054643
:1086600002A8002400F8014D0E4600F07FFA0DF13B
:108670000600FFF7DDFF90B106700A4B9DF806205B
:1086800045605A709DF8070000F0A0FA24B9064B27
:108690004FF48012C3F80021204602B070BD0424BC
:1086A000F0E700BFBCAA002000E100E0024B4FF45D
:1086B0003C6043F001031847509E0300F8B51F4982
:1086C0001F4B0025C1F84051C1F84451C1F8485131
:1086D000C1F84C51C1F80051C1F804511B684BB3AB
:1086E000D1F8044517490968641A24F07F442F46DD
:1086F0001A68A24209D8A41A15441A7CDE691AB174
:108700001F74D3E905209047AEB90F4B0F4A197873
:1087100013788B4205D10133DBB2022B08BF002353
:10872000137012780A4B43F822500A4B4FF4801210
:10873000C3F80021F8BD3346DAE700BF001001405E
:10874000DCAB0020D8AB0020D4AB0020D5AB0020A0
:10875000CCAB002000E100E02DE9F74F9C4A9D4999
:10876000137809789C4D99423CD00133DBB2022B3F
:1087700008BF0023137099491278994B0F6853F87A
:1087800022003B1823F07F4300220B602B68164623
:108790001446944613B942B12B6006E01968814231
:1087A0000ED902B12B60091A19604FF001082B682D
:1087B000DFF834A200930027BEB9DFF834B260E0DE
:1087C000401A0C44D968C3F800C0D3F81CE031B19A
:1087D0003A1922F07F42C3E90121DE611E460122DF
:1087E0007346D7E70026B046E1E73446F6697B4A90
:1087F00063681268DFF8FCC1A068991A21F07F4114
:10880000614500F2A58001442160012222742A689A
:108810000023C4E90133E361002A40F0A2802C6008
:10882000CAE75A1C9BF80210D2B291428BF8002082
:1088300004BF00228BF80020182202FB03B32A6831
:1088400019799C68022974D003297ED0012918D196
:10885000217CB1B9DA6862601A69A2605A69E26083
:108860009B69A3615F4B1B78002BC0D06160BEE7A2
:108870009C4200F090809946DB69002BF8D10023E0
:1088800023749BF800309BF801209A42C9D12B68D1
:108890002FB9009A934202D1B8F1000F43D0002BB8
:1088A00041D0D3F800A0504D4C4BD5F804751C684E
:1088B000DFF844813E1B98F8003026F07F460336EF
:1088C0009BB94FF48033C5F84433C5F80433474BA4
:1088D0004FF400324FF00109C3F880211A60C5F847
:1088E0000090FFF7E3FE88F80090B2452CBF544497
:1088F000A41924F07F44C5F84045D5F80435DB1BA6
:1089000023F07F43E41B033324F07F44A3420AD9BE
:10891000D5F80435C5F84035FFF7C8FE334B4FF4A2
:108920000032C3F800212F4B00221A7003B0BDE8BB
:10893000F08F13469146A0E71174D2690123002AF3
:10894000FAD1002B9DD02A609BE700231946F6E759
:10895000D31A23F07F43834234BFC31A002323601A
:1089600053E721681368994213D8591A1160E261DC
:1089700055E7091AD8691A4638B10346186888427B
:10898000F7D3401A1860184613462160E061DC6195
:1089900012E71346F2E74C450DD1D3692B6053B96A
:1089A0000E4801920121CAF8081003600D4B19709E
:1089B000FFF77CFE019AE1692368C9F81C1011B128
:1089C000086803440B602B689A4218BF012756E7DA
:1089D000D4AB0020D5AB0020DCAB0020D8AB00200E
:1089E000CCAB0020C8AB00200010014000E100E04B
:1089F000BCAA0020FEFF7F00C9AB0020F8B5194ECD
:108A0000194D1A4F4FF40033C6F8803001244FF44B
:108A10008033C5F84833C5F808336C60FFF746FE6D
:108A2000AC6000243C60FFF741FE114B1C70114B01
:108A30000B221C809A70104B1C60104B1C70104B4A
:108A40004FF480121C70E023C6F8802186F814339E
:108A50003260C5F8084586F81133D5F804353B6017
:108A60002046F8BD00E100E000100140D8AB002036
:108A7000C9AB0020BCAA0020DCAB0020D4AB002096
:108A8000D5AB0020074B9B784BB132B128B10368BE
:108A9000187C20B959745A61704707207047082024
:108AA000704700BFBCAA00202DE9F7431D4FBB78DB
:108AB00005460E4690469BB390B304292ED94369D0
:108AC00073B3437C02A80024012B00F8014D0CBFB6
:108AD0008946A14600F04AF80DF10600FFF7A8FD0F
:108AE000D0B101230370104B4560D3F80435C0E9C1
:108AF0000498C0E902369DF806307B709DF80700A7
:108B000000F064F824B9094B4FF48012C3F8002137
:108B1000204603B0BDE8F0830424EFE70724F7E71D
:108B20000824F5E7BCAA00200010014000E100E0A5
:108B3000064A92783AB130B1426922B100220274F9
:108B40000221FFF78BBD0820704700BFBCAA0020A0
:108B5000EFF30583C3F308032BB9EFF31480C0438D
:108B600000F00100704701207047000070B5044616
:108B7000FFF7EEFF012803D01049432005F020FD48
:108B8000EFF3108672B60E4A9068012398B993608D
:108B90000C4B0D4DD3F8801029401160C3F8805064
:108BA000D3F8841051604FF0FF32C3F88420207056
:108BB00006B962B670BD2370FAE700BF569E030087
:108BC000A8B6002000E100E0FC06FFBD10B5044699
:108BD000FFF7BEFF012803D00949512005F0F0FC42
:108BE000084B9A685AB154B9EFF3108172B6064A2D
:108BF00018681060586850609C6001B962B610BD7A
:108C0000569E0300A8B6002000E100E0024B1B685E
:108C10000021986806F07ABA0C9900201EF0040F23
:108C20001CBFEFF309800AE0EFF308800549064A0C
:108C3000884201D8904202D88D464FF00000034B85
:108C4000184700000000012000E00020518C0200C5
:108C50002DE9F347054600F009FE00F055FC002819
:108C6000FBD12F4B2F4C9F6A2F4BE41AE4082404AE
:108C700044F00104002D4ED0AA692C49204600F092
:108C8000C7FDEB680193AB6800932949D5E9002340
:108C9000204600F0DDFDEB6900932649D5E9042369
:108CA000204600F0C9FD1E4BDB6A980703D5224918
:108CB000204600F0A9FDDFF89490DFF894A000268C
:108CC0004FF0010808FA06F33B4206D059F8262077
:108CD0001AB15146204600F09BFD01361A2EF1D103
:108CE000390605D50E4B15495A6B204600F090FD0C
:108CF0003A0405D50A4B12499A6B204600F088FDCC
:108D0000104B1B68DB0700D500BE2846FEF706FDAA
:108D100002B0BDE8F0870C49204600F075FDC2E7BF
:108D200000ED00E084BA03001CBA0300AB9E030010
:108D3000C09E0300F59E0300509F03009F9F030009
:108D4000BF9F0300F0ED00E01D9F0300DC9F0300C8
:108D5000949F030050E8002F0B4640E8003C9CF035
:108D6000000FF7D11046704750E8003F43EA010278
:108D700040E8002C9CF0000FF6D11046704750E8F8
:108D8000002F02EA010340E8003C9CF0000FF6D1FE
:108D90001046704750E8003F03EB010240E8002C0A
:108DA0009CF0000FF6D11046704750E8003FA3EB4F
:108DB000010240E8002C9CF0000FF6D110467047ED
:108DC0000121FFF7D1BF0021FFF7D9BF37B5054615
:108DD00020B914494FF4927005F0F2FB02A8002468
:108DE00000F8014DFFF7C2FE2A68696813688B42DC
:108DF00010D9591E116013F8014C2A8AEB6802FB46
:108E000004342A68AB6811685B1A1179DBB29942A5
:108E100038BF13719DF80700FFF7D8FE204603B056
:108E200030BD00BF04A5030037B50C46054620B988
:108E3000104940F2471005F0C3FB24B90D494FF427
:108E4000A47005F0BDFB02A8002300F8013DFFF768
:108E50008DFE2A681368591C1160EA68A41A2A8AD0
:108E6000B4FBF2F41C709DF80700FFF7AFFE03B0EF
:108E700030BD00BF04A5030038B5084C04F1080359
:108E80000546002818BF1C4623682BB11A682260CB
:108E90005B6828469847F7E738BD00BFE8AB00207D
:108EA00020B9054B01225A70FFF7E6BF012802D115
:108EB000014A9070F8E77047E0AB002020B9034BFF
:108EC00001225A70FFF7D8BF704700BFE0AB002007
:108ED00038B50B4C237883B90A486360A3602361DB
:108EE000E36001F045FD054605F0CCF808B901F056
:108EF00055FD01232370284638BD8525FBE700BFBB
:108F0000E0AB0020A18E020037B51E4C2378054649
:108F10001BB91D49E92005F053FBA37803F0FF02BC
:108F2000D3B115B16B680120984700230DF10700FC
:108F30008DF80730FFF71AFEE3689DF8070001334C
:108F4000E360FFF743FEE36823B90F4940F20510E1
:108F500005F036FB03B030BD0DF107008DF807209A
:108F6000FFF704FE25B1226913463BB92A6025614B
:108F7000E368002BE0D101F02FFDDDE79D42F7D043
:108F80001B68F2E7E0AB002054A5030013B5154CB5
:108F9000237823B914494FF4857005F011FBE36879
:108FA00023B9114940F20B1005F00AFB02A8002377
:108FB00000F8013DFFF7DAFDE368013BE360E36899
:108FC00053B905F05FF818B10749792005F0F8FAB0
:108FD00001F038FD0023A3709DF80700FFF7F6FDB0
:108FE00002B010BDE0AB002054A50300012813B56A
:108FF00009D003D303281BD002B010BD134B0122AC
:10900000C3F88020F8E702A80023114C00F8013DC6
:10901000FFF7ACFD23780BB9FFF75AFFE3689DF823
:1090200007000133E3600123A370FFF7CFFDE3E7FF
:10903000074B1B7823B9074940F2452005F0C0FAD9
:1090400001F0ACFCFFF7A2FFD6E700BF00E100E0B3
:10905000E0AB002054A50300034B187810B901229F
:109060001A70704785207047F4AB00207FB50378F5
:109070008DF804304368029383688DF80C30C36820
:10908000049303698DF81430054A064B01A853F880
:10909000213052F82110984707B05DF804FB00BF5B
:1090A000F8AB002004AC0020F0B50646944616F854
:1090B000047B194A42F827C0184A42F82730184B57
:1090C0000C460FCB85B06D4685E80F0023788DF8F0
:1090D000003063788DF80130A3788DF80230E378A2
:1090E0008DF8033023798DF8053063798DF80630DB
:1090F000A3680293237B8DF80C30BCF1000F637BD7
:109100008DF80D30074A3B4608BF002229463046FD
:1091100002F06CFA05B0F0BD04AC0020F8AB002002
:10912000ACA503006D9002001FB503788DF80030E8
:1091300003798DF8043043798DF8053083688DF814
:109140000630C3688DF807300369029343690393BF
:10915000054A064B684653F8213052F821109847CB
:1091600005B05DF804FB00BF10AC002018AC002077
:1091700002494FF4F37005F023BA00BFF6970300DD
:109180001F2810B5044601D9FFF7F2FF012303FAA7
:1091900004F44FF0A043C3F8084510BD024B4FF450
:1091A000807043F001031847C0A503002DE9F14F7B
:1091B000924690F80080364A42F828A0354A42F894
:1091C00028304B7B81460C467BB30B684FF0A045A3
:1091D00003F5E07340F20C6245F823204B6803F579
:1091E000E073002645F823200868FFF7C9FF606890
:1091F000FFF7C6FF236803F5E07340F20D6245F800
:109200002320636803F5E0734FF0010B45F823203A
:10921000FFF7C4FF67681F2F01D9FFF7A9FFD5F833
:109220001035FB40DB070ED506BBBAF1000F1A4A1A
:10923000434608BF0022214609F1040001B0BDE801
:10924000F04F02F06FBE27681F2F01D9FFF790FF84
:109250000BFA07F7C5F80C75FFF7A0FF0136206879
:10926000FFF78EFFFFF79AFF092ED3D165681F2DF8
:1092700001D9FFF77DFF4FF0A0420123AB40C2F8B8
:109280000C35FFF78BFF6068FFF77AFFCDE700BF73
:1092900018AC002010AC0020299102001FB5037803
:1092A0008DF800304368019383688DF80830C368F7
:1092B0000393054A054B684653F8213052F82110B4
:1092C000984705B05DF804FB20AC002024AC0020DA
:1092D0001FB503788DF800304368019383688DF8DB
:1092E0000830C3680393054A054B684653F821309C
:1092F00052F82110984705B05DF804FB20AC00201F
:1093000024AC0020F0B5194B067891F81DE043F825
:109310002620174B94460A6943F82620154B03F87C
:1093200006E00C4607460FCC89B06D460FC594E8A1
:109330000F0085E80F000496BEF1000F0AD0BCF1C3
:10934000000F0D4A694608BF0022381D03F090FC4B
:1093500009B0F0BDBCF1000F084A694608BF002201
:1093600007F10C0003F0B2F9F2E700BF24AC0020D3
:1093700020AC0020B4B600209D920200D1920200E1
:10938000037813F0040216D003F00303012B03D07B
:10939000022B09D0012070470A6800880232C0F30E
:1093A000831002440A60F5E70B684288023303EB3E
:1093B00092130B60EEE71046704700002DE9F04F66
:1093C00089B00646871C08A8484C009200230D4629
:1093D00000F8113DFFF7CAFB23682B60D4E9012395
:1093E0001344226801339B1A04F21C4804F5836B72
:1093F00004F21449BB421AD3009A0023002A6DD00C
:10940000012262F3010343F0040366F38913216828
:10941000A2689DF80F000A4003320F4444F822303E
:109420002760FFF7D3FB012009B0BDE8F08F0121D1
:109430004046FFF7AFFC5846FFF7C2FC0DF1200A8B
:109440004846FFF7BDFC60684AF8100DA568284043
:10945000033004EB80005146FFF792FF0246049868
:10946000002AF4D105EA000304EB8303811CDB68C6
:1094700005930130054004EB850503F00303012B40
:109480000491ED6823D0022B08D0194901924FF4C2
:10949000BF7005F095F8019A154607E0BDF8163043
:1094A0009B0903332D0C01EB930304934846FFF70C
:1094B0008AFC08B1049B636029464046FFF76AFCBA
:1094C000D4E901231344226801339B1A92E7BDF8C3
:1094D0001430C3F383132D0C0B44E6E7022262F32E
:1094E000010343F0040366F39F5390E7F8AC0020B8
:1094F000D3A50300034BD3E90030C31A58425841A7
:10950000704700BFF8AC00202DE9F04387B0FFF7AB
:10951000F1FF0646002840F0FC807F4DC5F8180496
:10952000BFF34F8F6868AC6806AF47F8100D204056
:10953000033005EB80003946FFF722FF029B18B18C
:10954000D5F81824002A5FD004EA0302991C0133DD
:1095500005EB8202234005EB8303D268DB680493AA
:1095600002F00303022B0392029162D1BDF80E3088
:109570006A484FEA9318B8F1500FC14628BF4FF020
:10958000500969F38F1309F10801ADF80E3000F0AE
:10959000EBF90746002800F0A78000F014FA03A9B1
:1095A00000230822384600F021FA029924EA010635
:1095B0000136B600B14535D95FFA89F97EB3F6B206
:1095C000A9EB0609214003315FFA89F4B146544EF4
:1095D00005EB810108234A46384600F007FA36B108
:1095E00009F1080322463146384600F0FFF9029B94
:1095F00008F1030803EB98030293D5F81834002B05
:109600004BD1D5F810445BE02A689A4204D86A60CE
:10961000304607B0BDE8F08304EA030088E740491C
:109620003446D7E72140033108234A4605EB810140
:10963000DAE7012B58D1BDF80C303848C3F3831159
:10964000062928BF062161F3891302318900ADF88C
:109650000C3000F089F90746002845D000F0B3F936
:109660000023082203A9384600F0C0F90026BDF8FF
:109670000C20C2F38312B31C96424FEA8303BCD280
:1096800002994A1C21400331029205EB8101042218
:10969000384600F0ABF90136E9E7384600F097F9B3
:1096A000FFF728FF80F00100C6B2B1E7E3685B79FD
:1096B00023B1236839461B6820469847E3681C6835
:1096C000002CF3D1384600F082F906A800F8114DBD
:1096D000FFF74CFAD5F818340BB9029B6B609DF874
:1096E0000700FFF773FADBE7D5F8104454B90D4BC8
:1096F0000D480E49C01AC008000440F0020000F0F6
:1097000083F8CDE7236820469B689847E3681C6888
:10971000ECE700267CE700BFF8AC0020B4BA0300F9
:1097200004AD00201CBA030074BA03002AA603008B
:109730002DE9F74F2F4C80460F46914601A9012293
:1097400018469B46D4F808A0FFF738FE00283DD005
:10975000019D0026A91C5E4506EB010240D10021B7
:109760002548FFF7F7FA80F3100B244B244A4FEA01
:1097700018499B1AB9EBD30F04D3224940F2A31026
:1097800004F01EFF6B1C03EA0A0304EB830349EA9F
:109790000B42DA6005EA0A030333012114F823209F
:1097A00068F3C50204F8232034F8232066F38912F5
:1097B00024F8232054F8232067F39F2244F8232021
:1097C00061F301026FF3820204F8232094F820343D
:1097D0001BB1FFF799FE0028FBD103B0BDE8F08F65
:1097E0000AEA020204EB820259F82630D3600136FD
:1097F000B1E700BFF8AC002014B10020B4BA0300F8
:109800001CBA0300D3A5030000231A46FFF790BF3C
:1098100013B502AC012344F8042D2246FFF788FF5C
:1098200002B010BD07B5CDE9002302236A46FFF759
:109830007FFF03B05DF804FB1FB5CDE90123069B54
:10984000039301AA0323FFF773FF05B05DF804FB40
:109850001FB5CDE90023069B0293079B03936A463D
:109860000423FFF765FF05B05DF804FB38B5094A2E
:109870000123D2F8104482F820341D4604B938BDC3
:10988000E3685D71236820465B689847E3681C685D
:10989000F4E700BFF8AC00202DE9F74F99469DF89A
:1098A0003030019388461746054618B92249B6203C
:1098B00004F086FEEA8895F805B00BFB02FBABF1DD
:1098C000040BCB4503D81C49C42004F079FE3E6844
:1098D000B5F806A006EB09025A4509F1040188BF54
:1098E000ABEB0906B1FBFAF43E600AFB141144B974
:1098F000AAEB0107B74228BF37462EB903B0BDE82F
:10990000F08F2D68013CF2E7019A043108EB040363
:10991000681872B101463A461846F61B05F0FEFA81
:10992000B2453C442D6857464FF0000128BF3746EA
:10993000E3E73A461946F0E73FA60300F8B5467953
:109940000146721E0546002393422D6803D300246E
:10995000A64202D8F8BD0133F6E70F682846FFF7A4
:1099600063FA01343946F3E72DE9F843CD1C068A42
:109970000746FFF72BFA043E35440446B5FBF6F5DF
:10998000F0B14FF48073EDB28380C680013D076073
:1099900081464FF00008A84512D23846FFF716FA64
:1099A000064648B163790133637108F10108C9F8CB
:1099B000000007608146EEE72046FFF7BFFF344610
:1099C0002046BDE8F88301210430FFF7E3B910B564
:1099D000012104460430FFF7E8F910F0FF0F04D12D
:1099E0002046BDE81040FFF7A9BF10BD30B585B0D7
:1099F000144604AA002542F8044D0095FFF74CFFD9
:109A0000039BA34203D00349F62004F0D9FD05B01F
:109A100030BD00BF3FA60300064B10B500241C70EC
:109A2000054B1C60BFF35F8F0449054800F024FA22
:109A3000204610BD24B1002028B1002090A60300CC
:109A40001CB10020026813685268934291BFD01A7B
:109A500080680130801888BFC01A704738B50C463E
:109A6000054618B90449772004F0AAFDAB68A34263
:109A70008CBF601C002038BDA5A603002DE9F8436B
:109A800003681D685C68A54284BF8368013317467C
:109A9000884694BF641B5C1BC2684168BC42064692
:109AA00005FB02110CD37A43404605F037FAB36840
:109AB0003D449D4288BF002533681D60BDE8F883A2
:109AC00004FB02F94A46404605F028FAF26871683C
:109AD0003C1B624308EB090005F020FA33681C6068
:109AE000ECE7000038B5044618B907498A2004F0AD
:109AF00067FD236820461D685968FFF7AFFF431BC9
:109B00005842584138BD00BFA5A603002DE9F341D6
:109B10000D46044618B92E49952004F051FD1DB993
:109B20002B49962004F04CFD02A8002300F8013DCB
:109B3000FFF71CF82046FFF7D5FF804610B1237CC5
:109B4000002B3BD1276820467E687968FFF786FFA7
:109B50007860B8F1000F05D0276820463968FFF714
:109B60007DFF3860E2686068531E072B20D8DFE86D
:109B700003F004101F141F1F1F182B788355204655
:109B8000FFF760FF23689A68824200D29860002441
:109B900015E02B8820F81630F1E72B6840F82630C6
:109BA000EDE7D5E9002300EBC600C0E90023E6E7B6
:109BB000294606FB020005F0B1F9E0E704249DF810
:109BC0000700FFF703F8204602B0BDE8F08100BFB0
:109BD000A5A6030073B50E461446054620B91249E2
:109BE00040F2D51004F0ECFC26B90F494FF4EB70AD
:109BF00004F0E6FCA4B102A8002300F8013DFEF742
:109C0000B5FF2846FFF71EFF844228BF04462246C0
:109C100028463146FFF732FF9DF80700FEF7D6FFD2
:109C2000204602B070BD00BFA5A6030037B50446AC
:109C300020B90B4940F2EF1004F0C2FC02A8002545
:109C400000F8015DFEF792FF0C222946206805F01E
:109C5000FFF99DF80700FEF7B9FF03B030BD00BF64
:109C6000A5A6030013B5044620B90B4940F2FD1028
:109C700004F0A6FC02A8002300F8013DFEF776FFE1
:109C80002046FFF7DFFE04469DF80700FEF79EFF23
:109C9000204602B010BD00BFA5A6030010B50446C3
:109CA00020B9064940F20A2004F08AFC23681868AB
:109CB0005B68C31A5842584110BD00BFA5A60300F7
:109CC0002DE9F3410C469046054618B92549D9209F
:109CD00004F076FC1CB92349DA2004F071FC02A8D8
:109CE000002300F8013DFEF741FF2846FFF7D6FFAD
:109CF000002834D12F683E68B8F1000F04D13968CC
:109D00002846FFF7ABFE3860EA686968531E072BE8
:109D10001FD8DFE803F0040F1E131E1E1E178B5DF5
:109D2000237000249DF80700FEF750FF204602B084
:109D3000BDE8F08131F816302380F2E751F8263083
:109D40002360EEE701EBC601D1E90023C4E900235B
:109D5000E7E706FB0211204605F0E0F8E1E70524FD
:109D6000E0E700BFA5A6030038B5044620B90549C1
:109D700040F2122004F024FC2046A568FFF772FF91
:109D8000281A38BDA5A603002DE9F8430446164657
:109D90008846FFF7E9FF2368A5685A680135AD1AC0
:109DA0008146E26858686368B54202FB003017D309
:109DB0007243414605F0B2F82268A1685368334403
:109DC0008B4296BF53680026F61856602046FFF770
:109DD00039FE23689A68824238BF9860BDE8F883EC
:109DE00005FB02F73A46414605F098F8E2686068DC
:109DF000751B6A4308EB070105F090F82368B1452D
:109E00005D60E3D2256820466968FFF727FE286079
:109E1000DCE7000073B50E461446054620B9154927
:109E20004FF4B47004F0CCFB26B9124940F269102B
:109E300004F0C6FBA4B102A8002300F8013DFEF720
:109E400095FE2B7C7BB9AB689C4228BF1C462846FC
:109E500022463146FFF798FF9DF80700FEF7B6FE51
:109E6000204602B070BD2846FFF77EFF844228BF1F
:109E70000446ECE7A5A6030038B50D46044618B91C
:109E80000849502004F09CFB1DB90649512004F0FC
:109E900097FB25602B6863606A68934204BF0023C8
:109EA000636038BDF3A6030010B5044618B90B492A
:109EB000632004F085FB23681BB90849642004F083
:109EC0007FFB636843B1226891680B44636052680A
:109ED000934204BF0023636010BD00BFF3A60300DC
:109EE00043691B68DB6803B118477047012303709F
:109EF0007047000010B5044618B90849922004F0D4
:109F00005FFB2368012B03D00449932004F058FB26
:109F1000BFF35F8F0023236010BD00BF5CA7030069
:109F200010B4074C0378E35C23B104305DF8044BB4
:109F300002F0AABF0C305DF8044B02F0CBBC00BFAE
:109F4000B4B6002010B4074C0378E35C23B10430AE
:109F50005DF8044B03F018B80C305DF8044B02F0C8
:109F600035BD00BFB4B6002070B50578012D06469A
:109F70000C4603D029D3022D25D070BD4B69027A3F
:109F80001B6841685B681868FFF744FF337A8342B7
:109F900005D903212046BDE87040FFF7A1BF29463F
:109FA0002046FFF79DFF63691B689B6820465A7A2D
:109FB0005968FFF7C7FF0028DFD011499B20BDE893
:109FC000704004F0FDBA2946E4E74B691B685A6803
:109FD0009D68566800212046FFF782FF2A7A29688B
:109FE0003046FFF7F7FD0028C7D0C2B229682046E7
:109FF000FFF796FF0028C0D00149B220DFE700BF7D
:10A00000F6A7030010B5044618B90749852004F0E7
:10A01000D7FA01212046FEF79DFEBFF35F8FB0FA0D
:10A0200080F0400910BD00BF5CA703000378044A1C
:10A03000D35C13B1043002F09BBF0C3002F0BABC09
:10A04000B4B6002003681A7812B11B6903B118472F
:10A05000704700002DE9704304464FF4FA784FF43E
:10A0600000404FF00009E0FB0189164600234FF441
:10A070007A72404649460FF0D9F90428054604D8BB
:10A08000012333700020BDE87083074A0021204679
:10A09000FEF7F8FC0028F6D1324629462068BDE8D4
:10A0A0007043FEF701BD00BFED9E02002DE9F047B1
:10A0B00043691B68064618780F46144618BBFF2AEA
:10A0C00028BFFF24DFF84C902546274406F10C0AF0
:10A0D000337819F80330A7EB050883B1301D02F07F
:10A0E000EBFF00B115B9601BBDE8F08701224146C6
:10A0F0003046FFF727FF0028F5D1013DE8E750463D
:10A1000002F0FAFCEDE75B68BDE8F0471868FFF77E
:10A1100061BD00BFB4B60020F0B50E4689B015464B
:10A12000044608B101B11AB94449BF2004F048FA05
:10A1300063691B68002B7ED12B783BB16B680BB138
:10A14000AB681BB93D49C92004F03AFA31462022D8
:10A15000684604F0E3FE2B780494991E4A424A4173
:10A16000002B8DF81D206946354A204608BF002285
:10A17000FFF7C8F80646002838D163691D60636997
:10A180001B685B6843B15868FFF750FD63691B6843
:10A190005B681868FFF74AFD656915F1080F03D180
:10A1A0002849722004F00CFA0023AB60BFF35F8FE4
:10A1B00067693A1D1D4603D12249722004F000FA56
:10A1C0007D60BFF35F8F636903221A73009B0133C5
:10A1D00001BF6269137B23F002031373019A636961
:10A1E000013206D11A7B22F001021A73304609B0FF
:10A1F000F0BD1B681B78022B09D163691B689B6843
:10A2000020465A7A5968FFF79DFE0646EEE7237806
:10A210000D4AD35C53B10D4940F25A2004F0D0F9F5
:10A2200063691B681B78002BE7D1DFE704F10C00A2
:10A2300002F06AFCF4E78526D8E700BFF6A7030022
:10A24000699F02005CA70300B4B60020A8A7030022
:10A250002DE9F04F0F4685B016469B46044620B9BF
:10A2600052494FF4A67004F0ABF960690368002B03
:10A2700000F09180027B910740F18F80002E5DD02D
:10A2800007F06042B2F1005F03D01B78022B00F0B0
:10A2900086800430FFF7B6FE002800F0828000239D
:10A2A0008DF80C300E9B5A1C0ED003AA1946A069DB
:10A2B000FFF7D0FE054638B160690430FFF71AFE9B
:10A2C000284605B0BDE8F08FDFF8E09035466369B9
:10A2D0001A681378A3BBFF2DA84628BF4FF0FF08CC
:10A2E0005FFA88F239462046FFF71AFE18B1494650
:10A2F000692004F065F9B5EB0805474406D06069AC
:10A30000FFF7A0FE9DF80C30002BE0D0BBF1000F52
:10A3100002D0761BCBF800609DF80C3033B90E9B51
:10A32000013303D0A3691868FEF702FC60690430AA
:10A33000FFF7E0FD15B19DF80C30A3BB0025BFE78A
:10A340005368D2F808A05B68019318462A4639463C
:10A35000FFF760FD80462046FFF768FE019B00285E
:10A36000C9D19AF80820DAF800101846FFF732FC35
:10A37000024628B901904946782004F021F9019A53
:10A38000DAF80010D2B22046FFF7CAFD0028B2D09A
:10A3900049467A20ADE7802592E7082590E7102509
:10A3A0008EE711258CE70D258AE700BFF6A703008D
:10A3B0002DE9F7430A9F884616469946044620B978
:10A3C000344940F2A31004F0FBF860690368002BE5
:10A3D00057D0037BDA0756D5002E38D00830FFF768
:10A3E00011FE002851D000238DF804307B1C30D1A1
:10A3F00035462A4641462046FFF758FE2D1A80442E
:10A400000ED09DF804306069002B37D003681B78AC
:10A4100033B12378204AD35C5BB3201D02F054FE95
:10A42000B9F1000F02D0761BC9F800609DF8043026
:10A430002BB9013703D0E3691868FEF779FB60692F
:10A440000830FFF757FD15B19DF80430FBB9002522
:10A450000BE001AA3946E069FFF7FCFD054600283C
:10A46000C6D060690830FFF745FD284603B0BDE857
:10A47000F08304F10C0002F05DFBD1E7FFF7E2FD91
:10A48000B7E78025F1E70825EFE71125EDE70D2572
:10A49000EBE700BFF6A70300B4B6002073B50E4685
:10A4A000044620B92B494FF4FD7004F089F8606927
:10A4B0000368002B46D0027B920745D51B78002B02
:10A4C0003ED00430FFF79EFD00283FD000238DF8DA
:10A4D0000430731C0DD001AA3146A069FFF7BAFD04
:10A4E000054630B160690430FFF704FD284602B02C
:10A4F00070BD63691B685B685868FFF7CFFB054652
:10A5000040B96069FFF79EFD9DF80430002BF0D044
:10A51000002504E02046FFF789FD0028F1D19DF8D1
:10A5200004302BB9013603D0A3691868FEF700FB8D
:10A5300060690430FFF7DEFC15B99DF804303BB9C3
:10A540000025D3E78025D1E70825CFE71125CDE702
:10A550000D25CBE7F6A7030013B5044620B915492E
:10A5600040F2592004F02CF860690368E3B1037BE2
:10A57000DB071BD50830FFF745FDC8B101220DF1FF
:10A5800007012046FFF792FD0028F7D163691B6899
:10A590005B68186808B1FFF749FB60690830FFF78E
:10A5A000A9FC002002B010BD8020FBE70820F9E7DD
:10A5B0001120F7E7F6A703000D4930B5A1F5947215
:10A5C0000225914201D800200EE08B1ADB1093FB8C
:10A5D000F5F302EBC30452F83330834205D802D2BC
:10A5E00004F10802EDE7606830BD2146E9E700BFED
:10A5F00084A9030008B5FFF7DFFF024B002808BF5E
:10A60000184608BD46A80300C0B2002348700B706E
:10A610007047000070B50D46044618B9084971200E
:10A6200003F0CEFF23681A6812683AB11A681B68F3
:10A6300051681B682846BDE87040184770BD00BFD0
:10A640003EAD0300F0B5044687B018B92D49372058
:10A6500003F0B6FF2368187E1A68C0B207B2966886
:10A660004FEAC70C06EB0C0256F8376051791779A0
:10A67000927912F0010F4FEA510501F0010139D032
:10A68000002937D1D3F800E09EF80CE00130704586
:10A6900030DAD3F800E00CF10800DEF808C084449A
:10A6A0009CF805C0B5EB5C0F24D11A6891680A18B4
:10A6B00051F800C0187E517992F804E09279013087
:10A6C00011F0010F4FEA4212C0B20CBF0321022168
:10A6D00002F0200218768DF8041004F10C0001A994
:10A6E0008DF80550CDE9027ECDE9046C01F076FDD0
:10A6F00007B0F0BD52014FF0000C02F02002E64618
:10A70000E9E700BF3EAD03002DE9F74F0E460446D2
:10A7100018B92949872003F053FF2568DFF89CB05A
:10A720004FF0000802A800F8018DFEF71FFA16B9D5
:10A7300023681B6843B9002229466068FFF7C0FA06
:10A7400090B3C5F8008000269DF80700FEF73EFA9A
:10A750007EB32B681B694BBB2F1D102239466869DD
:10A7600004F0AAFBA8B104F10C0A504604F1080950
:10A7700001F0D8FC23465A4639464846FEF716FDF6
:10A7800018B10D49B42003F01BFF504601F080FCC6
:10A790006F6185F818802046FFF754FF014640B1ED
:10A7A0002046FFF737FFBDE70126CDE72B681F697D
:10A7B000D3E703B0BDE8F08F3EAD0300C1A70200B0
:10A7C00038B50C46054618B91249D22003F0F8FEF8
:10A7D00023681B681BB90F49D82003F0F1FE2978C4
:10A7E00071B92268137E10680133007BDBB2984296
:10A7F00007D913762046FFF725FF014608B938BD73
:10A8000003212046FFF706FF20460121BDE838401E
:10A81000FFF77ABF3EAD0300F8B50E46044620B9F7
:10A8200019494FF4847003F0CBFE636823B91649CD
:10A8300040F2091003F0C4FE63689B6823B9124913
:10A840004FF4857003F0BCFE26B90F4940F20B109F
:10A8500003F0B6FE23460D4A314604F10800FEF728
:10A86000A5FC074670B904F10C0001F011FC236847
:10A870001F6096E80F002568043585E80F002368FF
:10A880001A1D5A613846F8BD3EAD0300C1A702004B
:10A8900037B50546019120B9144940F22D1003F057
:10A8A0008FFE019B23B911494FF4977003F088FE86
:10A8B000019B9B6823B90D4940F22F1003F080FEE5
:10A8C000019B1B7B23B909494FF4987003F078FE74
:10A8D00001A96868FFF71AF9044618B90146284625
:10A8E000FFF712FF204603B030BD00BF3EAD0300AE
:10A8F0002DE9F04186B0884617461E460C9C054659
:10A9000020B9194940F24F1003F05AFE27B91649F1
:10A910004FF4A87003F054FE26B9134940F25110C9
:10A9200003F04EFE0023ADF8003001238DF8003017
:10A9300001A90E4B01932846CDF808D003978DF856
:10A940001060CDF81480FFF7A3FF20B106B0BDE87A
:10A95000F08104B1A0479DF80030002BF9D19DF89B
:10A960000100C0B2F2E700BF3EAD030009A602003D
:10A9700010B5044618B90749A02003F021FE064B84
:10A98000187920B901221C601A71587110BD8520F8
:10A99000FCE700BF92AD03002CB1002008B50B4BC3
:10A9A0001B791BB90A49B92003F00AFE094B1A6842
:10A9B000D2075FBFE02283F8002301221A604FF024
:10A9C00080430122C3F8182508BD00BF2CB1002028
:10A9D00092AD030000E100E037B5144B1B791BB9C1
:10A9E0001349E62003F0ECFD124B00221A601B68AD
:10A9F0000193019B4FF080430222C3F804230E4AC7
:10AA0000D06840F08073D3600C4B1C6844F00101A7
:10AA100019605D685968491BB1F50A5FFAD31C607B
:10AA2000074BD06001221A6003B030BD2CB100206A
:10AA300092AD030004010040F0ED00E0001000E0E2
:10AA40000800004008B5084B1B791BB90749F320E3
:10AA500003F0B6FD064B01221A604FF08042D2F897
:10AA60001834DB03FBD408BD2CB1002092AD0300E9
:10AA70000C00004007B5154B1A687AB100221A6025
:10AA80001B680093009B4FF080430122C3F808230A
:10AA90000F4B587910B95A711B6898470D4B1A68BB
:10AAA00082B100221A601B680193019B4FF0804322
:10AAB0000222C3F80823064B1B68012003B05DF88F
:10AAC00004EB184703B05DF804FB00BF0001004031
:10AAD0002CB100200401004000F1804000F5C0408E
:10AAE000002382B0036003680193019B02B07047AA
:10AAF000054B4FF0FF32072843F8202084BF1B1876
:10AB000083F84820704700BF34B1002002494FF459
:10AB1000F37003F055BD00BFF69703001F2838B54A
:10AB200004460D4601D9FFF7F1FFA00000F1A04057
:10AB3000D0F8003723F44033C0F80037D0F800379E
:10AB400043EA0543C0F8003738BD000010B5164C85
:10AB500094F8583033BBFF21E2180133202B82F8E0
:10AB60003010F9D10021C8B2FFF7C2FF01310C2922
:10AB7000F9D1042200210D4804F06AFA0C4BE022BE
:10AB800083F8062340221A604FF4BE70FFF7A4FF3B
:10AB9000084B4FF00042C3F80423012384F85830D7
:10ABA000002010BD0820FCE734B1002088B100204F
:10ABB00000E100E000600040034B93F858000030D3
:10ABC00018BF0120704700BF34B100201F2870B5A6
:10ABD00004460D4604D941494FF4987003F0F0FC47
:10ABE0003F4E96F85830012B04D03C4940F23110CA
:10ABF00003F0E6FC25B939494FF4997003F0E0FC05
:10AC0000331993F93020013265D1AA78002A54D043
:10AC1000002356F8231001314FEA830248D131193D
:10AC200002F1804281F83030002102F5C04246F83E
:10AC30002310D2F810052B78697820F498101B04A3
:10AC4000090520F4F85001F4801103F44033C2F8F0
:10AC500010050B432102D2F8100501F4F8510B4303
:10AC60000343C2F810356B78012B4FF0010528D152
:10AC70001F2C01D9FFF74AFF4FF0A043A540C3F8AE
:10AC800008551F2C01D9FFF741FF04F5E0724FF082
:10AC9000A043032143F82210E2081249012304F0E3
:10ACA000070403FA04F48B5C1C438C54002003E07B
:10ACB0000133082BADD1042070BDFE2283F8302073
:10ACC000D1E71F2C01D9FFF721FF4FF0A043A5408A
:10ACD000C3F80C55D5E70820EEE700BFE5AD03004B
:10ACE00034B1002088B100201F28F8B5044604D9EB
:10ACF0001D494FF4B47003F063FC1C4D2B1993F9FC
:10AD00003030013304D1184940F2691003F058FC87
:10AD1000291991F83000072809D8FFF7E9FE91F9C1
:10AD20003030134A03F5A273002142F82310254462
:10AD3000FF23104F85F83030E60804F007030125A3
:10AD40009D40BB5D2B420ED01F2C01D9FFF7DEFECC
:10AD50004FF0A04304F5E074022243F82420BB5DC9
:10AD600023EA0505BD55F8BDE5AD030034B100206B
:10AD70000060004088B100201F2838B5054604D97E
:10AD800012494FF4BE7003F01BFC114C621992F98A
:10AD90003020013204D10D4940F27D1003F010FC47
:10ADA000631993F83030072B04D808494FF4BF706B
:10ADB00003F006FC1F2D01D9FFF7A8FE012303FABB
:10ADC00005F54FF0A043C3F8085538BDE5AD0300C5
:10ADD00034B100201F2838B5054604D912494FF474
:10ADE000C37003F0EDFB114C621992F9302001326F
:10ADF00004D10D4940F2871003F0E2FB631993F888
:10AE00003030072B04D808494FF4C47003F0D8FB46
:10AE10001F2D01D9FFF77AFE012303FA05F54FF044
:10AE2000A043C3F80C5538BDE5AD030034B1002094
:10AE30001F2838B5054604D914494FF4CD7003F0E6
:10AE4000BFFB134C631993F93030013304D10F4920
:10AE500040F29B1003F0B4FB631993F83030072BDA
:10AE600004D90A494FF4CE7003F0AAFB2C4494F99C
:10AE700030309B0003F1804303F5C043D3F8102525
:10AE800042F00302C3F8102538BD00BFE5AD030052
:10AE900034B100201F2838B5054604D90D4940F2C9
:10AEA000B91003F08DFB0C4C631993F83030072B6D
:10AEB00004D908494FF4DD7003F082FB601990F962
:10AEC00030000C308000C0B200F1804000F5C0407E
:10AED00038BD00BFE5AD030034B100201F2838B5F0
:10AEE000054604D90D494FF4E37003F069FB0C4C9F
:10AEF000631993F83030072B04D9084940F2C71082
:10AF000003F05EFB601990F9300018308000C0B289
:10AF100000F1804000F5C04038BD00BFE5AD030042
:10AF200034B100201F2870B506460D4604D91749D4
:10AF30004FF4E97003F044FB154CA31993F930303A
:10AF4000013304D1114940F2D31003F039FBA319A6
:10AF500093F83030072B04D90C494FF4EA7003F012
:10AF60002FFB3444003594F930304FEA830303F16A
:10AF7000804303F5C04318BF0125D3F8101521F411
:10AF8000801141EA0551C3F8101570BDE5AD03000D
:10AF900034B100202DE9F04F87B000245B4A5C4EAD
:10AFA0005C4D039401211368A2F5C040012B80B2CF
:10AFB00006D1D6F804330B4202D0FFF78DFD0C43C7
:10AFC0000432AA424FEA4101EDD1534B1B68012BD9
:10AFD0000AD14FF4BE70FFF77FFD4FF0A04344F05D
:10AFE0000044D3F81035039314F0FF0F1AD04B4FE1
:10AFF00000250126344210D0AB0003F1804303F555
:10B00000C043D3F81005D3F8101557F82530C0F316
:10B010000420C1F3014103B198470135082D4FEADF
:10B020004606E7D1002C6EDA00224FF0FF33CDE95F
:10B0300004233A4F4FF0000A56464FF0A04907EB61
:10B040000A0393F95040631C46D0E4B2012224F075
:10B05000C00504F0070B02FA0BFBEB0806AAD11897
:10B0600011F8042C12EA0B0F36D07A19A40992F9C0
:10B07000302057F82280B8F1000F0AD1032C2BD1D1
:10B080000DF1100C1CF8030040EA0B000CF8030053
:10B0900001E0032CF4D01F2D03D90191FFF736FDF9
:10B0A000019911F80C1C05F5E07311EA0B0F59F822
:10B0B0002330C3F3014320D0022B0DD1032C05D143
:10B0C00021462846FFF72AFD0136F6B2B8F1000FF7
:10B0D00002D021462846C0470AF1010ABAF1040FFE
:10B0E000ADD186B14FF0A043039AD3F810359A4200
:10B0F00009D00393049B05939CE7032BECD1032C0D
:10B10000E4D10221DDE707B0BDE8F08F0061004027
:10B1100000600040206100407C61004034B10020AC
:10B120002DE9F74F4FF00009154D164E07464FF029
:10B13000040AC8465FFA89FB01240DF1070004FAEE
:10B140000BF48DF80780FDF711FD2C4208D0336811
:10B1500014EA030201BF2343336087F800B092462C
:10B160009DF80700FDF732FDBAF1000F03D0A543AB
:10B1700009F10109DED1504603B0BDE8F08F00BFF0
:10B18000FFFF010090B1002037B501258540C5F3D0
:10B190001003A3B10B4B02A80024C3F8085500F814
:10B1A000014DFDF7E3FC084A9DF80700136823EA08
:10B1B00005051560FDF70AFD204603B030BD0720E8
:10B1C000FBE700BF00F0014090B1002010B5A1B135
:10B1D0009AB101238340C3F3100484B10A4C24685C
:10B1E00023420ED0C00000F1804000F5F830C0F8D6
:10B1F0001015C0F81425002010BD0E20FCE7072014
:10B20000FAE70820F8E700BF90B10020012303FA15
:10B2100000F0430C5B044BB918B1064B1B68184295
:10B2200006D0054BC3F8040500207047072070477F
:10B230000820704790B1002000F00140012303FA7C
:10B2400000F0430C5B044BB918B1064B1B68184265
:10B2500006D0054BC3F8080500207047072070474B
:10B260000820704790B1002000F0014010B5054C57
:10B2700022681AB90449512003F0A2F92368BDE8F5
:10B280001040184794B100203EAE030037B50D467C
:10B2900030B90F49772003F093F9002003B030BD97
:10B2A0000C4B9842F9D102A8002300F8013DFDF7AC
:10B2B0005DFC094B1C7914B901221D601A719DF8BF
:10B2C0000700FDF783FC002CE7D01120E6E700BF64
:10B2D0003EAE03000020004094B1002018B906499A
:10B2E0009B2003F06DB9054B984201BF044B00222F
:10B2F0001A601A71704700BF3EAE03000020004084
:10B3000094B100200023435082B043580193019B25
:10B3100002B0704770B5D0F8103105460C4653B1F5
:10B320004FF48871FFF7EEFF63795A0703D523685E
:10B330000BB101209847D5F814315BB14FF48A71F5
:10B340002846FFF7DFFF63791B0703D523680BB19E
:10B3500002209847D5F81C315BB128464FF48E7116
:10B36000FFF7D0FF607910F0100002D1236803B11D
:10B370009847D5F8043163B14FF482712846FFF73E
:10B38000C1FF0123237123681BB10320BDE8704076
:10B39000184770BD01490248FFF7BCBF9CB10020AF
:10B3A00000C0014001490248FFF7B4BFA4B100202A
:10B3B0000010024001490248FFF7ACBFACB10020C9
:10B3C0000020024000F1804000F5E040002382B000
:10B3D000036003680193019B02B07047F0B5514BC5
:10B3E000514C1B6885B0DBB14FF4827094F82E206D
:10B3F000FFF7E8FF12B194F82F30A3B1636802930E
:10B400002389ADF80C30E36800218DF80410002B7F
:10B4100044D12374236801A89847002384F82F306F
:10B4200094F82E3003B3414B1B68EBB14FF480709E
:10B43000FFF7C8FF94F82D20638B91B28B4238D967
:10B440005B1A21899BB26383CB1A616801EB4301CC
:10B45000374BC3F82C16C3F830264FF48270FFF731
:10B46000B1FF344B01221A60334B1B685BB14FF4C0
:10B470008870FFF7A7FF002304A82374022300F8B5
:10B480000C3D236898472D4B1B6813B34FF48A700B
:10B49000FFF798FF0023237405B0F0BD208B608375
:10B4A00063602081E160002AB4D1214B01221A603F
:10B4B000B0E7D2D1E368012184F82F103BB100211D
:10B4C00061831B49C1F82C36C1F83026C5E7638378
:10B4D000C3E766694FF000470125002EDCD0B6FABD
:10B4E00086F227FA02F34632920026EA030602F1B8
:10B4F000804303F5E0431B68002BEED01046FFF7B6
:10B5000061FFA2F58C72D30882F00402C2F38002BC
:10B510008DF808308DF804508DF80920236801A8B3
:10B520009847DAE704710040B4B100200071004090
:10B530000070004004700040107100401471004021
:10B5400002494FF4F37003F03BB800BFF6970300D5
:10B550001F2810B5044601D9FFF7F2FF012303FAB3
:10B5600004F44FF0A043C3F80C4510BD1F2810B5DC
:10B57000044601D9FFF7E4FF012303FA04F44FF076
:10B58000A043C3F8084510BD13B54FF04023D3F8CE
:10B5900018310BB3114B124C00221A601B68019337
:10B5A000019B236823B90F494FF4277003F008F873
:10B5B000E07FFF2803D0A37F5BB1FFF7C9FF002323
:10B5C00063772372D4E90031074802B0BDE8104028
:10B5D0001847FFF7CBFFF2E702B010BD184100405B
:10B5E000E4B100209BAE0300ECB100202DE9F74F41
:10B5F0008146CDE900230C4619B97D49AD2002F002
:10B60000DFFF99F804607B4F242303FB06FB07EB65
:10B610000B0A9AF81C10002940F0E480D9F8005079
:10B6200075492846FFF732FE8046002840F0DD804D
:10B63000009B47F80B30019BCAF80430237B20782D
:10B64000012B00F2BD80FFF783FF94F800A0BAF150
:10B650001F0F01D9FFF774FF0AF5E07A4FF0A043FE
:10B66000012243F82A2094F801A0BAF1FF0F00F05C
:10B67000AA805046FFF76CFFBAF11F0FD34601D9DD
:10B68000FFF75EFF0AF5E07A4FF0A043032243F88C
:10B690002A20A378FF2B00F099801F2B9A4603D90C
:10B6A0000093FFF74DFF009B03F5E0734FF0A042BE
:10B6B000042142F82310242303FB0673A27883F8A5
:10B6C0002020E278DA77E078FF2817D02379002B62
:10B6D0007FD0FFF73DFFE3781F2B03D90093FFF7DF
:10B6E0002FFF009B03F5E0734FF0A042032142F8C7
:10B6F0002310242303FB067322799A772378C5F855
:10B700000835C5F80CB5C5F810A5A368C5F82435EB
:10B71000637B227B003318BF0123022A5CD0032AFB
:10B720005DD0012A01D143F00203C5F85435A37955
:10B73000C5F8C03524237343FB5813B14022C5F824
:10B7400004230722C5F800257BB3D9F800306479BB
:10B750004FEA133AA31E012B4FFA8AF506D9631F4D
:10B76000022B03D925496B2002F02AFF002DACBF24
:10B7700005F16043224B4FEA4414B8BF0AF00F0AA8
:10B78000E4B2AABF03F5614303F80A4083F800431B
:10B79000D9F800301B0B5AB2012103F01F0301FA44
:10B7A00003F35209174941F82230242303FB06769C
:10B7B0000023737701233377404603B0BDE8F08F51
:10B7C000FFF7D4FE41E74FF0FF3B62E74FF0FF3A4F
:10B7D00071E7FFF7CBFE7EE743F00403A5E743F0F4
:10B7E0000603A2E74FF00808E6E74FF01108E3E789
:10B7F0009BAE0300E4B1002089B50200E7AE030070
:10B8000014ED00E000E100E02DE9F341584F067926
:10B81000242303FB067380461B7F0D46144623B981
:10B82000544940F2322002F0CBFE2B6833B96B68EA
:10B8300023B1504940F2332002F0C2FEAB6833B965
:10B84000EB6823B14B494FF40D7002F0B9FE98F844
:10B8500004302BB9EB68FF2B02D86B68FF2B04D99F
:10B86000444940F2372002F0ABFE24237343FA1818
:10B87000517F002979D1FB5823B114F0140F04BF74
:10B880000123537795E80F004FF0240C0CFB067C46
:10B890000CF10C0E8EE80F009CF81F00FF2804D05E
:10B8A0009CF81E30C3B1FFF761FE2A6822B102F096
:10B8B0006043B3F1005F06D1AB6883B103F060432E
:10B8C000B3F1005F0BD0242303FB067600237377CC
:10B8D000102002B0BDE8F081FFF73AFEE5E7D8F8A6
:10B8E00000306968C3F84425C3F84815D5E9021249
:10B8F000C3F83415C3F838250022C3F81821D3F84B
:10B9000018210192019A14F0010218BF0122C3F814
:10B91000502514F0020218BF0122C3F84025220767
:10B920005CBF01221A6124227243BA5892B9D3F83B
:10B930001821002AFBD0242303FB0676F07FFF2882
:10B9400003D0B47F1CB1FFF703FE0020C1E7FFF76F
:10B950000DFEFAE714F004004FF0400202D0C3F8E5
:10B960000823F2E7C3F80423B3E71120B1E700BFCF
:10B97000E4B100209BAE03002DE9F7430024064606
:10B980000F4600F5A0754FF48038A14604F1500031
:10B990002B68800080B26BB1D6F8043308FA04F249
:10B9A0001A4207D0C5F800902B680193019BD7E994
:10B9B000003198470134042C05F10405E6D103B0A9
:10B9C000BDE8F0832DE9F347544B0779154602682B
:10B9D0009A4204460E4603D15149482002F0F0FD38
:10B9E0001EB94F494A2002F0EBFD1DB94C494B20CE
:10B9F00002F0E6FD4B4A0C2303FB072390461B7A1B
:10BA0000002B40F089802368444A93420FD002F50E
:10BA1000805293420BD002F58052934207D002F538
:10BA20008032934203D002F58052934202D1B37820
:10BA3000032B03D93A495F2002F0C2FD0C237B435C
:10BA400008EB030248F80350736853600022154660
:10BA500060792168D3B2984202F1010254D8F57896
:10BA6000AB1E4FEA113A012B4FFA8AF906D96B1F28
:10BA7000022B03D92C496B2002F0A2FDB9F1000F73
:10BA8000AEBF09F160430AF00F03284A28484FEA85
:10BA90004515EDB2AABF03F56143D55483F80053B1
:10BAA00023681B0B59B24909012203F01F0302FA54
:10BAB00003F340F8213020687378D0F8041503F0C0
:10BAC000030321F003010B43C0F804352068B37869
:10BAD000D0F8081503F0030321F003010B43C0F86D
